:020000040000FA
:10000000B4298207DD348434E934E534B4347534FA
:100010007D34C434FD34F534FC343D345934AD34CE
:10002000793478342D340D342C3439340034FF34A1
:100030008207F734FB34FE34FD34FF34820700348A
:1000400098349634803400340F34423440340034D1
:1000500001348634A03400340034273410340034A2
:1000600000340334E83400340034003464340034A1
:10007000003400340A3400340034003401346400A5
:1000800083168100831200346400810183162730B7
:10009000810064002F30810083120034003086001C
:1000A0008B016400810183162B3081008312630071
:1000B00000000800C9007F390120C91B0238C900AF
:1000C0000034CA007F390120CA1B0238CA0000343C
:1000D000CB007F390120CB1B0238CB000034CC0091
:1000E0007F390120CC1B0238CC000034CD007F3991
:1000F0000120CD1B0238CD0000340030C900CA00F9
:10010000CB00CC00CD000034B001B101B201B3018D
:10011000D401D501D301D913AC01D91E932801080C
:10012000BA003B08BA028101000000004E08182006
:10013000AF0049304E078400000886002F08850074
:10014000CF0A4F1BCE0A4F134E08043C031CCE01AE
:100150000108B3000130AC1F0301B31B0301B20758
:100160000318B10AB11B012900000000AE080319F1
:10017000AD03AE0364000A30D20033082C06031925
:10018000E82801303302031DCD282E08B9002D08C0
:10019000B8000730D2000000E8280630D200000086
:1001A0000000000000000000503E53020318E82841
:1001B0000230D2003808D4003908D50003142E08C4
:1001C000031C2E0FD5022D08031C2D0FD402D30AB9
:1001D0005208FF3E031DE9283308AC000000000070
:1001E000000000002D082E04031D96280108B3000E
:1001F000BB000130AC1F0301B31B0301B20703189E
:10020000B10A00340008840AB0000008840AB10072
:100210000008840AB2000008840AB300A701403035
:100220008400640027081E20A800A70A27081E20B3
:10023000A900A70A27081E20AA00A70A27081E202F
:10024000AB00A70A80012B08B3022A0803182D2946
:10025000B20203190310B2032E29B20229080318AF
:100260003629B10203190310B1033729B102280856
:1002700003183F29B00203190310B0034029B0024C
:10028000031C4429800A23292B08B3072A08031CCE
:100290004E29B207B20A031903144F29B2072908DD
:1002A000031C5729B107B10A031903145829B107D0
:1002B0002808031C6029B007B00A03190314612938
:1002C000B007840A20302702031D1129D91F87296E
:1002D000591F7629433084008008031D712914308A
:1002E0008000511CA629C417C717A62943308400D3
:1002F0008008031D822914308000840A8008031DB1
:1003000082298000511CA429C517C717A429591395
:10031000D91AA429403084008008031DA229840A28
:100320008008031DA229840A8008031D9F29840ACE
:100330008008031D9F295118C4171430A72951188C
:10034000C417A629C117A6294330840000085A20E3
:10035000840A00086120840A00086820840A0008D2
:100360006F20840A000876280030831685008312E7
:10037000850100308316860083128601CE01CF01ED
:100380001430C80015305A2015306120153068200F
:1003900015306F201530762027303F206130AD00BA
:1003A000A830AE008420D901851AE829D9160C306E
:1003B0005A20103061201130682012306F20133025
:1003C0007620C330AD005030AE008420851EE12978
:1003D000B401B501B601B701BA01BB018316003003
:1003E000850000308600831264002030831681006F
:1003F00083120630AD008230AE0025303F208420CD
:100400003030AD00D430AE00D10A3208C039031DFF
:100410002F2AB21A2B2A321A272AB219232A321962
:10042000202AB218202A3218202A3308343C031C10
:10043000202A4420C330AD005030AE000030332AB3
:1004400044200230332A20303F200330332A213029
:100450003F200430332A22303F200530332A233016
:100460003F200630332AD000D91E842A1330AD0035
:100470008830AE008420031033080318330FB70709
:1004800032080318320FB60731080318310FB507C9
:1004900030080318300FB4073A08B300B201B101B5
:1004A000B001031033080318330FB70732080318DD
:1004B000320FB60731080318310FB507300803189B
:1004C000300FB4073408B0003508B1003608B20068
:1004D0003708B3003108013C031C7D2A031D7A2A2A
:1004E0003208863C031C7D2A031D7A2A33089F3C70
:1004F000031C7D2A0E21851A362AB401B501B601E6
:10050000B701BA01BB01362A8420D00803198F2A0B
:100510000310B30DB20DB10DB00DD00B882A300809
:100520003104320433040319192BB01B242B300877
:1005300031043204031D032BD308031DA52A013007
:10054000D300C330D4005030D5003E3033020318FE
:10055000B72A4030851ED906591FB72A0230B40089
:10056000FA30B500F030B6008030B700C02A591319
:100570000030B4004C30B5004B30B6004030B7000E
:10058000B001B101B201B301031037080318370FEE
:10059000B30736080318360FB20735080318350FAE
:1005A000B10734080318340FB007D303031DC42A5E
:1005B000B401B5015408B6005508B700D601D701FB
:1005C000D801052303143708031C370FB30236087C
:1005D000031C360FB2023508031C350FB102340874
:1005E000031C340FB002031CFB2AD80A0319D70AD4
:1005F0000319D60AE12AB0015608B1005708B20023
:100600005808B300D9170E21E8294E081820AF006A
:1006100049304E078400000886002F088500CF0A65
:100620004F1BCE0A4F134E08043C031CCE0164003E
:10063000003414305A2014306120143068201430F3
:100640006F2000307620E8290E305A2014306120C7
:0E0650001430682014306F2014307620E82912
:02400E00063F6B
:00000001FF
