:020000040000FA
:100000005E2A8207DD348434E934E534B43475344F
:100010007D34C434FD34F534FC343D345934AD34CE
:10002000793478342D340D342C3439342834DF3499
:100030000034FF348207F734FB34FE34FD34FF34E0
:1000400082070534F534E1340034003498349634B2
:10005000803400340F344234403400340134863468
:10006000A034003400342734103400340034033416
:10007000E834003400340034643400340034003494
:100080000A340034003400340134640083168100E3
:1000900083120034640081018316273081006400DC
:1000A0002F30810083120034CA007F390120CA1B1F
:1000B0000238CA000034CB007F390120CB1B023844
:1000C000CB000034CC007F390120CC1B0238CC009F
:1000D0000034CD007F390120CD1B0238CD00003423
:1000E000CE007F390120CE1B0238CE000034003014
:1000F000CA00CB00CC00CD00CE0000348B13831699
:100100009B008312000883169A001C158B13553030
:100110009D00AA309D009C149C188C281C118312F1
:100120000034AF008B1383169B001C141A08831233
:1001300080002F080800B001B101B201B301D50160
:10014000D601D401DB13AC015B1CAA280108BA005C
:100150003B08BA028101000000004F081A20AF00DE
:100160004A304F078400000886002F088500D00A17
:10017000501BCF0A50134F08043C031CCF01010849
:10018000B3000130AC1F0301B31B0301B207031816
:10019000B10AB11B192900000000AE080319AD0314
:1001A000AE0364000A30D30033082C06031900297B
:1001B00001303302031DE4282E08B9002D08B800D1
:1001C0000730D300000000290630D30000000000F3
:1001D000000000000000FF30540203180029000056
:1001E0000230D3003808D5003908D60003142E0891
:1001F000031C2E0FD6022D08031C2D0FD502D40A86
:100200005308FF3E031D01293308AC000000000025
:10021000000000002D082E04031DAD280108B300C6
:10022000BB000130AC1F0301B31B0301B20703186D
:10023000B10A00345B08F139031DB4290030B40061
:100240009830B5009630B6007F30B70003143308FD
:10025000031C330FB7023208031C320FB6023108F9
:10026000031C310FB5023008031C300FB402031811
:100270005129B401B5010130B600F430B7000310C4
:1002800037080318370FB30736080318360FB207BD
:1002900035080318350FB10734080318340FB007B9
:1002A000B4290030B4000F30B5004230B6003F3002
:1002B000B70003143308031C330FB7023208031CC2
:1002C000320FB6023108031C310FB5023008031C8F
:1002D000300FB40203188329B401B501B6013230DE
:1002E000B700031037080318370FB3073608031891
:1002F000360FB20735080318350FB1073408031855
:10030000340FB007B4290030B4000130B500863096
:10031000B6009F30B70003143308031C330FB70235
:100320003208031C320FB6023108031C310FB5022C
:100330003008031C300FB4020318B429B401B5010E
:10034000B6010530B700031037080318370FB3079D
:1003500036080318360FB20735080318350FB107F2
:1003600034080318340FB007A7014030840064003C
:1003700027082020A800A70A27082020A900A70AEC
:1003800027082020AA00A70A27082020AB00A70AD8
:10039000800103142B08031C2B0FB3022A08031C33
:1003A0002A0FB2022908031C290FB1022808031CD6
:1003B000280FB002031CDE29800AC92903102B086C
:1003C00003182B0FB3072A0803182A0FB2072908AE
:1003D0000318290FB10728080318280FB007840A4B
:1003E00024302702031DB729DB1F232A5B1B172A92
:1003F000DB1A0B2A443084008008031D062A1630BD
:100400008000840A8008031D062A8000521C4E2AA0
:10041000C617C8174E2A443084008008031D122ACC
:1004200016308000521C502AC717C817502A443073
:1004300084008008031D1E2A16308000521C502A9A
:10044000C517C817502A5B135B184E2A5B1A462A39
:10045000403084008008031D442A840A8008031D5C
:10046000442A840A8008031D442A840A8008031D44
:10047000412A840A8008031D412A5218C5171630E4
:10048000512A5218C517502AC217502A5B12521C03
:100490004E2AC417C517C617C717C817443084009B
:1004A00000085420840A00085B20840A00086220A7
:1004B000840A00086920840A000870280030831626
:1004C0008500831285010030831686008312860121
:1004D000CF01D0011630C80027304520DB015A304B
:1004E00084000030912077205A080139DB00D9239D
:1004F0006130AD00A830AE009B20851A822A013001
:10050000DB06772A5B080139DA005A3084000030B4
:100510007E20B401B501B601B701BA01BB01831653
:10052000003085000030860083126400203083167E
:10053000810083120730AD00D030AE002530452059
:100540009B206130AD00A830AE00D20A3208C0391D
:10055000031DDF2AB21ADB2A321AD72AB219D32A8C
:100560003219CD2AB218C32A3218C32A33083E3CA6
:10057000031CC32ABC2A5B164A20C330AD0050308E
:10058000AE000030E22A851EBB2A20304520C33051
:10059000AD005030AE000130E22A851EBB2A20306B
:1005A00045200230E22A213045200330E22A223061
:1005B00045200430E22A233045200530E22A243049
:1005C00045200630D1005B188B2B9B20D1080319E6
:1005D000F02A0310B30DB20DB10DB00DD10BE92A05
:1005E00030083104320433040319072CB01B122CD9
:1005F0000030B4000030B5000330B600E730B7007B
:1006000003143308031C330FB7023208031C320FE4
:10061000B6023108031C310FB5023008031C300F3D
:10062000B402031C892BD408031D1C2B0130D400F9
:10063000C330D5005030D600B204031D3C2BDB1272
:100640003E3033020318322B4030851EDB065B1F21
:10065000322B0230B400FA30B500F030B6008030F2
:10066000B700462B5B130030B4004C30B5004B3064
:10067000B6004030B700462B5B13DB160030B400E9
:100680000730B500A130B6002030B700B001B1018D
:10069000B201B301031037080318370FB307360848
:1006A0000318360FB20735080318350FB1073408A1
:1006B0000318340FB007D403031D4A2BB401B5014E
:1006C0005508B6005608B700D701D801D901F32361
:1006D00003143708031C370FB3023608031C360F08
:1006E000B2023508031C350FB1023408031C340F65
:1006F000B002031C812BD90A0319D80A0319D70A9F
:10070000672BB0015708B1005808B2005908B30070
:10071000DB171A21892A1330AD008830AE009B20E8
:10072000031033080318330FB70732080318320FCA
:10073000B60731080318310FB50730080318300F1A
:10074000B4073A08B300B201B101B0010310330895
:100750000318330FB70732080318320FB6073108F2
:100760000318310FB50730080318300FB4073408E9
:10077000B0003508B1003608B2003708B3003108C0
:10078000013C031CD22B031DCF2B3208863C031CDB
:10079000D22B031DCF2B33089F3C031CD22B1A21D5
:1007A000851A8B2BB401B501B601B701BA01BB01A3
:1007B0008B2B5B080139031DE82B0F3054201430BC
:1007C0005B200E3062201530692016307020003416
:1007D0000C30542010305B20113062201230692020
:1007E0001330702000344F081A20AF004A304F07F2
:1007F0008400000886002F088500D00A501BCF0A0D
:1008000050134F08043C031CCF0164000034163021
:10081000542016305B2016306220163069200030DC
:100820007020892A0E30542016305B20163062204A
:0A0830001630692016307020892A66
:02400E00063F6B
:024200000000BC
:00000001FF
