:020000040000FA
:1000000045288207DD348434E934E534B43475346A
:100010007D34C434FD34F534FC343D345934AD34CE
:10002000793478342D340D342C3439342834DF3499
:100030000034FF348207F734FB34FE34FD34FF34E0
:1000400082070534F534E1340034003498349634B2
:10005000803400340F344234403400340134863468
:10006000A034003400342734103400340034033416
:10007000E834003400340034643400340034003494
:100080000A34003400340034013400308316850013
:100090008312850100308316860083128601CF010A
:1000A000D0011630C8002730CA23DB015A30840043
:1000B00000301624FC230330DA059C236130AD00A8
:1000C000A830AE00E021AF01851A6A282F14013054
:1000D000DA065D282F1C72280330DA055A308400B6
:1000E00000300324B401B501B601B701BA01BB0168
:1000F00083160030850000308600831264002030B3
:100100008316810083125A1892290730AD00D0302F
:10011000AE002530CA23E0216130AD00A830AE002A
:10012000D20A3208C039031DCA28B21AC628321AA8
:10013000C228B219BE283219B828B218AE2832180F
:10014000AE2833083E3C031CAE28A7285B16CF23FD
:10015000C330AD005030AE000030CD28851EA6283B
:100160002030CA23C330AD005030AE000130CD285E
:10017000851EA6282030CA230230CD282130CA236C
:100180000330CD282230CA230430CD282330CA239F
:100190000530CD282430CA230630D100E021D10813
:1001A0000319D9280310B30DB20DB10DB00DD10B49
:1001B000D228300831043204330403197C29B01BDF
:1001C00087290030B4000030B5000330B600E730B6
:1001D000B70003143308031C330FB7023208031CA3
:1001E000320FB6023108031C310FB5023008031C70
:1001F000300FB402031C7A29D408031D05290130ED
:10020000D400C330D5005030D600B204031D2D29D0
:10021000DB123E30330203182329851A17290230D6
:10022000DA060330DA055A30840000300324DA1C81
:1002300023295B170230B400FA30B500F030B60065
:100240008030B70037295B130030B4004C30B50064
:100250004B30B6004030B70037295B13DB16003057
:10026000B4000730B500A130B6002030B700B001AF
:10027000B101B201B301031037080318370FB307F8
:1002800036080318360FB20735080318350FB107C3
:1002900034080318340FB007D403031D3B29B401FD
:1002A000B5015508B6005608B700D701D801D901E5
:1002B000B62303143708031C370FB3023608031C98
:1002C000360FB2023508031C350FB1023408031C87
:1002D000340FB002031C7229D90A0319D80A031972
:1002E000D70A5829B0015708B1005808B200590878
:1002F000B300DB175F2272281630D9231630E023B3
:100300001630E7231630EE230030F52372280E3026
:10031000D9231630E0231630E7231630EE231630AB
:10032000F52372281330AD008830AE00E0210310B1
:1003300033080318330FB70732080318320FB60714
:1003400031080318310FB50730080318300FB40710
:100350003A08B300B201B101B00103103308031829
:10036000330FB70732080318320FB60731080318E6
:10037000310FB50730080318300FB4073408B00048
:100380003508B1003608B2003708B3003108013C27
:10039000031CD929031DD6293208863C031CD92900
:1003A000031DD62933089F3C031CD9295F22851AD7
:1003B0009229B401B501B601B701BA01BB01922976
:1003C000B001B101B201B301D501D601D401DB13F3
:1003D000AC015A1CEF290108BA003B08BA0281019E
:1003E000000000004F081A20AF004A304F07840079
:1003F000000886002F088500D00A501BCF0A501332
:100400004F08043C031CCF010108B3000130AC1FAE
:100410000301B31B0301B2070318B10AB11B5E2A23
:1004200000000000AE080319AD03AE0364000A30FB
:10043000D30033082C060319452A01303302031D6B
:10044000292A2E08B9002D08B8000730D300000073
:10045000452A0630D3000000000000000000000024
:10046000FF3054020318452A00000230D300380838
:10047000D5003908D60003142E08031C2E0FD6020F
:100480002D08031C2D0FD502D40A5308FF3E031D6F
:10049000462A3308AC0000000000000000002D08D0
:1004A0002E04031DF2290108B300BB000130AC1F6C
:1004B0000301B31B0301B2070318B10A00345B0840
:1004C000F039031DF92A0030B4009830B500963099
:1004D000B6007F30B70003143308031C330FB70294
:1004E0003208031C320FB6023108031C310FB5026B
:1004F0003008031C300FB4020318962AB401B5016A
:100500000130B600F430B700031037080318370F76
:10051000B30736080318360FB20735080318350F2E
:10052000B10734080318340FB007F92A0030B400BB
:100530000F30B5004230B6003F30B7000314330827
:10054000031C330FB7023208031C320FB602310806
:10055000031C310FB5023008031C300FB40203181E
:10056000C82AB401B501B6013230B700031037080C
:100570000318370FB30736080318360FB2073508CC
:100580000318350FB10734080318340FB007F92AE0
:100590000030B4000130B5008630B6009F30B7009F
:1005A00003143308031C330FB7023208031C320F45
:1005B000B6023108031C310FB5023008031C300F9E
:1005C000B4020318F92AB401B501B6010530B70029
:1005D000031037080318370FB30736080318360F10
:1005E000B20735080318350FB10734080318340F64
:1005F000B007A70140308400640027082020A8002D
:10060000A70A27082020A900A70A27082020AA0057
:10061000A70A27082020AB00A70A800103142B0893
:10062000031C2B0FB3022A08031C2A0FB20229084D
:10063000031C290FB1022808031C280FB002031C59
:10064000232B800A0E2B03102B0803182B0FB30744
:100650002A0803182A0FB20729080318290FB1071F
:1006600028080318280FB007840A24302702031D26
:10067000FC2ADB1F622B5B1B582BDB1A4E2B4430F2
:1006800084008008031D4B2B16308000840A8008EC
:10069000031D4B2B8000C617C8178C2B44308400D9
:1006A0008008031D552B16308000C717C8178E2BE6
:1006B000443084008008031D5F2B16308000C5176E
:1006C000C8178E2B5B135A188C2B5B1A842B403067
:1006D00084008008031D812B840A8008031D812B60
:1006E000840A8008031D812B840A8008031D7F2B48
:1006F000840A8008031D7F2BC51716308F2BC51762
:100700008E2B5218C2178E2B5B12521C8C2BC417C7
:10071000C517C617C717C817443084000008D92367
:10072000840A0008E023840A0008E723840A0008FA
:10073000EE23840A0008F52B5B080339031DAB2B5D
:100740000F30D9231430E0230E30E7231530EE2389
:100750001630F52300340C30D9231030E02311304B
:10076000E7231230EE231330F52300344F081A200C
:10077000AF004A304F078400000886002F0885002C
:10078000D00A501BCF0A50134F08043C031CCF0162
:100790006400003464008316810083120034640016
:1007A000810183162730810064002F30810083127D
:1007B0000034CA007F390120CA1B0238CA00003445
:1007C000CB007F390120CB1B0238CB000034CC009A
:1007D0007F390120CC1B0238CC000034CD007F399A
:1007E0000120CD1B0238CD000034CE007F3901201E
:1007F000CE1B0238CE0000340030CA00CB00CC0043
:10080000CD00CE0000348B1383169B0083120008AA
:1008100083169A001C158B1355309D00AA309D003D
:100820009C149C18112C1C1183120034AF008B13E4
:1008300083169B001C141A08831280002F080800DE
:02400E00063F6B
:024200000000BC
:00000001FF
