:020000040000FA
:10000000BC298207DD348434E934E534B4347534F2
:100010007D34C434FD34F534FC343D345934AD34CE
:10002000793478342D340D342C3439340034FF34A1
:100030008207F734FB34FE34FD34FF34820700348A
:1000400098349634803400340F34423440340034D1
:1000500001348634A03400340034273410340034A2
:1000600000340334E83400340034003464340034A1
:10007000003400340A3400340034003401346400A5
:1000800083168100831200346400810183162730B7
:10009000810064002F30810083120034003086001C
:1000A0008B016400810183162B3081008312630071
:1000B00000000800C9007F390120C91B0238C900AF
:1000C0000034CA007F390120CA1B0238CA0000343C
:1000D000CB007F390120CB1B0238CB000034CC0091
:1000E0007F390120CC1B0238CC000034CD007F3991
:1000F0000120CD1B0238CD0000340030C900CA00F9
:10010000CB00CC00CD000034B001B101B201B3018D
:10011000D401D501D301D913AC01591E932801088C
:10012000BA003B08BA028101000000004E08182006
:10013000AF0049304E078400000886002F08850074
:10014000CF0A4F1BCE0A4F134E08043C031CCE01AE
:100150000108B3000130AC1F0301B31B0301B20758
:100160000318B10AB11B022900000000AE080319F0
:10017000AD03AE0364000A30D20033082C06031925
:10018000E92801303302031DCD282E08B9002D08BF
:10019000B8000730D2000000E9280630D200000085
:1001A0000000000000000000503E53020318E92840
:1001B00000000230D2003808D4003908D5000314FA
:1001C0002E08031C2E0FD5022D08031C2D0FD40260
:1001D000D30A5208FF3E031DEA283308AC00000092
:1001E0000000000000002D082E04031D96280108C1
:1001F000B300BB000130AC1F0301B31B0301B20706
:100200000318B10A00340008840AB0000008840A08
:10021000B1000008840AB2000008840AB300A701F4
:1002200040308400640027081E20A800A70A270881
:100230001E20A900A70A27081E20AA00A70A27082F
:100240001E20AB00A70A80012B08B3022A0803185E
:100250002E29B20203190310B2032F29B202290872
:1002600003183729B10203190310B1033829B10269
:10027000280803184029B00203190310B0034129CC
:10028000B002031C4529800A24292B08B3072A0839
:10029000031C4F29B207B20A031903145029B207ED
:1002A0002908031C5829B107B10A03190314592955
:1002B000B1072808031C6129B007B00A0319031409
:1002C0006229B007840A20302702031D1229D91F92
:1002D0008829591F7729433084008008031D72291B
:1002E00014308000511CAE29C417C717AE29433003
:1002F00084008008031D832914308000840A80084C
:10030000031D83298000511CAC29C517C717AC29D0
:100310005913591AAC29D91AA729403084008008EA
:10032000031DA529840A8008031DA529840A8008C5
:10033000031DA229840A8008031DA2295118C4178D
:100340001430AF295118C417AE29C117AE29D912DC
:10035000511CC3175118C4174330840000085A2099
:10036000840A00086120840A00086820840A0008C2
:100370006F20840A000876280030831685008312D7
:10038000850100308316860083128601CE01CF01DD
:100390001430C80015305A201530612015306820FF
:1003A00015306F201530762027303F206130AD00AA
:1003B000A830AE008420D901851AF02959160C30D6
:1003C0005A20103061201130682012306F20133015
:1003D0007620C330AD005030AE008420851EE92960
:1003E000B401B501B601B701BA01BB0183160030F3
:1003F000850000308600831264002030831681005F
:1004000083120630AD008230AE0025303F208420BC
:100410003030AD00D430AE00D10A3208C039031DEF
:10042000382AB21A342A321A302AB2192C2A32192E
:100430002A2AB2182A2A32182A2A3308343C031CE2
:100440002A2A4420C330AD005030AE0000303B2A91
:10045000D916212A851E282A20303F2003303B2A26
:1004600021303F2004303B2A22303F2005303B2AF8
:1004700023303F200630D000591E8C2A1330AD00A7
:100480008830AE008420031033080318330FB707F9
:1004900032080318320FB60731080318310FB507B9
:1004A00030080318300FB4073A08B300B201B101A5
:1004B000B001031033080318330FB70732080318CD
:1004C000320FB60731080318310FB507300803188B
:1004D000300FB4073408B0003508B1003608B20058
:1004E0003708B3003108013C031C852A031D822A0A
:1004F0003208863C031C852A031D822A33089F3C50
:10050000031C852A0F21851A3E2AB401B501B601C4
:10051000B701BA01BB013E2A8420D0080319972AEB
:100520000310B30DB20DB10DB00DD00B902A3008F1
:100530003104320433040319212BB01B2C2B300857
:1005400031043204031D0B2BD308031DAD2A0130E7
:10055000D300C330D4005030D5003E3033020318EE
:10056000BF2A4030851ED906591FBF2A0230B40069
:10057000FA30B500F030B6008030B700C82A591301
:100580000030B4004C30B5004B30B6004030B700FE
:10059000B001B101B201B301031037080318370FDE
:1005A000B30736080318360FB20735080318350F9E
:1005B000B10734080318340FB007D303031DCC2A46
:1005C000B401B5015408B6005508B700D601D701EB
:1005D000D8010D2303143708031C370FB302360864
:1005E000031C360FB2023508031C350FB102340864
:1005F000031C340FB002031C032BD80A0319D70ABB
:100600000319D60AE92AB0015608B1005708B2000A
:100610005808B300D9170F21F0294E081820AF0051
:1006200049304E078400000886002F088500CF0A55
:100630004F1BCE0A4F134E08043C031CCE0164002E
:10064000003414305A2014306120143068201430E3
:100650006F2000307620F0290E305A2014306120AF
:0E0660001430682014306F2014307620F029FA
:02400E00063F6B
:00000001FF
