:020000040000FA
:10000000722A8207DD348434E934E534B43475343B
:100010007D34C434FD34F534FC343D345934AD34CE
:10002000793478342D340D342C3439340034FF34A1
:100030008207F734FB34FE34FD34FF348207053485
:10004000F534E1340034003498349634803400348C
:100050000F3442344034003401348634A034003448
:10006000003427341034003400340334E8340034CE
:100070000034003464340034003400340A34003472
:10008000003400340134640083168100831200348C
:100090006400810183162730810064002F308100C5
:1000A00083120034CA007F390120CA1B0238CA00FB
:1000B0000034CB007F390120CB1B0238CB00003449
:1000C000CC007F390120CC1B0238CC000034CD009D
:1000D0007F390120CD1B0238CD000034CE007F399E
:1000E0000120CE1B0238CE0000340030CA00CB0005
:1000F000CC00CD00CE0000348B1383169B008312FE
:10010000000883169A001C158B1355309D00AA30E9
:100110009D009C149C188A281C1183120034AF0087
:100120008B1383169B001C141A08831280002F085F
:1001300008008F20013E840A8F20013E840A8F2010
:10014000013E840A8F28B001B101B201B301D5018B
:10015000D601D401DA13AC01DA1DB2280108BA00C5
:100160003B08BA028101000000004F081820AF00D0
:100170004A304F078400000886002F088500D00A07
:10018000501BCF0A50134F08043C031CCF01010839
:10019000B3000130AC1F0301B31B0301B207031806
:1001A000B10AB11B212900000000AE080319AD03FC
:1001B000AE0364000A30D30033082C060319082963
:1001C00001303302031DEC282E08B9002D08B800B9
:1001D0000730D300000008290630D30000000000DB
:1001E000000000000000FF3054020318082900003E
:1001F0000230D3003808D5003908D60003142E0881
:10020000031C2E0FD6022D08031C2D0FD502D40A75
:100210005308FF3E031D09293308AC00000000000D
:10022000000000002D082E04031DB5280108B300AE
:10023000BB000130AC1F0301B31B0301B20703185D
:10024000B10A00340008840AB0000008840AB10032
:100250000008840AB2000008840AB3005A08F8397A
:10026000031DC8290030B4009830B5009630B600A0
:100270007F30B70003143308031C330FB702320872
:10028000031C320FB6023108031C310FB5023008CF
:10029000031C300FB40203186529B401B501013005
:1002A000B600F430B700031037080318370FB30750
:1002B00036080318360FB20735080318350FB10793
:1002C00034080318340FB007C8290030B4000F30C9
:1002D000B5004230B6003F30B70003143308031CAA
:1002E000330FB7023208031C320FB6023108031C69
:1002F000310FB5023008031C300FB40203189729E0
:10030000B401B501B6013230B70003103708031845
:10031000370FB30736080318360FB207350803182E
:10032000350FB10734080318340FB007C82900305F
:10033000B4000130B5008630B6009F30B70003141A
:100340003308031C330FB7023208031C320FB60206
:100350003108031C310FB5023008031C300FB40202
:100360000318C829B401B501B6010530B700031060
:1003700037080318370FB30736080318360FB207CC
:1003800035080318350FB10734080318340FB007C8
:10039000A70140308400640027081E20A800A70A97
:1003A00027081E20A900A70A27081E20AA00A70ABE
:1003B00027081E20AB00A70A800103142B08031C8A
:1003C0002B0FB3022A08031C2A0FB2022908031CB0
:1003D000290FB1022808031C280FB002031CF229C0
:1003E000800ADD2903102B0803182B0FB3072A08F6
:1003F00003182A0FB20729080318290FB107280884
:100400000318280FB007840A24302702031DCB29C4
:10041000DA1F372A5A1B2B2ADA1A1F2A4430840083
:100420008008031D1A2A14308000840A8008031DE6
:100430001A2A8000521C622AC617C817622A443042
:1004400084008008031D262A14308000521C642A70
:10045000C717C817642A443084008008031D322A55
:1004600014308000521C642AC517C817642A5A1316
:10047000DA19622A5A1A5A2A403084008008031D69
:10048000582A840A8008031D582A840A8008031DFC
:10049000582A840A8008031D552A840A8008031DEF
:1004A000552A5218C5171430652A5218C517642AE0
:1004B000C217642A5A12521C622AC417C517C617DB
:1004C000C717C8174430840000085220840A000867
:1004D0005920840A00086020840A00086720840AE2
:1004E00000086E28003083168500831285010030D5
:1004F0008316860083128601CF01D0011430C80014
:1005000015305220153059201530602015306720E5
:1005100015306E20273043206130AD00A830AE008A
:10052000A320DA01851AA82ADA150C3052201030DF
:100530005920113060201230672013306E201330A4
:10054000AD008830AE00A3200230CE06851E9F2A63
:10055000B401B501B601B701BA01BB018316003081
:1005600085000030860083126400203083168100ED
:1005700083120730AD00D030AE0025304320A320D9
:100580006130AD00A830AE00D20A3208C039031D78
:10059000FE2AB21AFA2A321AF62AB219F22A3219A5
:1005A000EC2AB218E22A3218E22A33083E3C031C35
:1005B000E22ADB2A5A164820C330AD005030AE0084
:1005C0000030012B851EDA2A20304320C330AD00D5
:1005D0005030AE000130012B851EDA2A2030432036
:1005E0000230012B213043200330012B22304320E5
:1005F0000430012B233043200530012B24304320CD
:100600000630D100DA1D522B1330AD008830AE0019
:10061000A320031033080318330FB7073208031859
:10062000320FB60731080318310FB5073008031829
:10063000300FB4073A08B300B201B101B0010310A2
:1006400033080318330FB70732080318320FB60701
:1006500031080318310FB50730080318300FB407FD
:100660003408B0003508B1003608B2003708B300CE
:100670003108013C031C4B2B031D482B3208863CE0
:10068000031C4B2B031D482B33089F3C031C4B2B97
:100690002E21851A042BB401B501B601B701BA01A8
:1006A000BB01042BA320D10803195D2B0310B30D4C
:1006B000B20DB10DB00DD10B562B30083104320400
:1006C000330403190C2CB01B172C0030B40000307D
:1006D000B5000330B600E730B70003143308031C3D
:1006E000330FB7023208031C320FB6023108031C65
:1006F000310FB5023008031C300FB402031CF62B77
:10070000D408031D892B0130D400C330D5005030EC
:10071000D600B204031DA92BDA123E3033020318AF
:100720009F2B4030851EDA065A1F9F2B0230B400E3
:10073000FA30B500F030B6008030B700B32B5A1352
:100740000030B4004C30B5004B30B6004030B7003C
:10075000B32B5A13DA160030B4000730B500A130BD
:10076000B6002030B700B001B101B201B3010310EF
:1007700037080318370FB30736080318360FB207C8
:1007800035080318350FB10734080318340FB007C4
:10079000D403031DB72BB401B5015508B6005608A4
:1007A000B700D701D801D901F82303143708031C77
:1007B000370FB3023608031C360FB2023508031C8C
:1007C000350FB1023408031C340FB002031CEE2BAA
:1007D000D90A0319D80A0319D70AD42BB00157082C
:1007E000B1005808B2005908B300DA172E21A82A20
:1007F0004F081820AF004A304F07840000088600D9
:100800002F088500D00A501BCF0A50134F08043C14
:10081000031CCF01640000341430522014305920DE
:10082000143060201430672000306E20A82A0E306B
:1008300052201430592014306020143067201430B6
:040840006E20A82A54
:02400E00063F6B
:024200000000BC
:00000001FF
