:020000040000FA
:100000003A2A8207DD348434E934E534B434753473
:100010007D34C434FD34F534FC343D345934AD34CE
:10002000793478342D340D342C3439340034FF34A1
:100030008207F734FB34FE34FD34FF348207053485
:10004000F534E1340034003498349634803400348C
:100050000F3442344034003401348634A034003448
:10006000003427341034003400340334E8340034CE
:100070000034003464340034003400340A34003472
:10008000003400340134640083168100831200348C
:100090006400810183162730810064002F308100C5
:1000A00083120034CA007F390120CA1B0238CA00FB
:1000B0000034CB007F390120CB1B0238CB00003449
:1000C000CC007F390120CC1B0238CC000034CD009D
:1000D0007F390120CD1B0238CD000034CE007F399E
:1000E0000120CE1B0238CE0000340030CA00CB0005
:1000F000CC00CD00CE000034B001B101B201B3019B
:10010000D501D601D401DA13AC015A1E8B2801089F
:10011000BA003B08BA028101000000004F08182015
:10012000AF004A304F078400000886002F08850082
:10013000D00A501BCF0A50134F08043C031CCF01B8
:100140000108B3000130AC1F0301B31B0301B20768
:100150000318B10AB11BFA2800000000AE08031909
:10016000AD03AE0364000A30D30033082C06031934
:10017000E12801303302031DC5282E08B9002D08DF
:10018000B8000730D3000000E1280630D30000009B
:100190000000000000000000503E54020318E12857
:1001A00000000230D3003808D5003908D600031407
:1001B0002E08031C2E0FD6022D08031C2D0FD5026E
:1001C000D40A5308FF3E031DE2283308AC000000A8
:1001D0000000000000002D082E04031D8E280108D9
:1001E000B300BB000130AC1F0301B31B0301B20716
:1001F0000318B10A00340008840AB0000008840A19
:10020000B1000008840AB2000008840AB3005A084A
:10021000F039031DA1290030B4009830B5009630A4
:10022000B6007F30B70003143308031C330FB70246
:100230003208031C320FB6023108031C310FB5021D
:100240003008031C300FB40203183E29B401B50175
:100250000130B600F430B700031037080318370F29
:10026000B30736080318360FB20735080318350FE1
:10027000B10734080318340FB007A1290030B400C7
:100280000F30B5004230B6003F30B70003143308DA
:10029000031C330FB7023208031C320FB6023108B9
:1002A000031C310FB5023008031C300FB4020318D1
:1002B0007029B401B501B6013230B7000310370818
:1002C0000318370FB30736080318360FB20735087F
:1002D0000318350FB10734080318340FB007A129EC
:1002E0000030B4000130B5008630B6009F30B70052
:1002F00003143308031C330FB7023208031C320FF8
:10030000B6023108031C310FB5023008031C300F50
:10031000B4020318A129B401B501B6010530B70034
:10032000031037080318370FB30736080318360FC2
:10033000B20735080318350FB10734080318340F16
:10034000B007A70140308400640027081E20A800E1
:10035000A70A27081E20A900A70A27081E20AA000E
:10036000A70A27081E20AB00A70A800103142B0848
:10037000031C2B0FB3022A08031C2A0FB202290800
:10038000031C290FB1022808031C280FB002031C0C
:10039000CB29800AB62903102B0803182B0FB307AB
:1003A0002A0803182A0FB20729080318290FB107D2
:1003B00028080318280FB007840A24302702031DD9
:1003C000A429DA1F022A5A1FF12944308400800828
:1003D000031DEC2914308000521C2C2AC517C817A5
:1003E0002C2A443084008008031DFD29143080002D
:1003F000840A8008031DFD298000521C2A2AC61782
:10040000C8172A2A5A135A1A2A2ADA1A252A4030D1
:1004100084008008031D232A840A8008031D232AE0
:10042000840A8008031D232A840A8008031D202AC9
:10043000840A8008031D202A5218C51714302D2A5B
:100440005218C5172C2AC2172C2ADA12521CC417AC
:100450005218C5174430840000085220840A00084E
:100460005920840A00086020840A00086720840A52
:1004700000086E2800308316850083128501003045
:100480008316860083128601CF01D0011430C80084
:100490001530522015305920153060201530672056
:1004A00015306E20273043206130AD00A830AE00FB
:1004B0007C20DA01851A702A5A160C30522010302E
:1004C0005920113060201230672013306E20133015
:1004D000AD008830AE007C200230CE06851E672A33
:1004E000B401B501B601B701BA01BB0183160030F2
:1004F000850000308600831264002030831681005E
:1005000083120730AD00D030AE00253043207C2070
:100510006130AD00A830AE00D20A3208C039031DE8
:10052000C62AB21AC22A321ABE2AB219BA2A3219F5
:10053000B42AB218AA2A3218AA2A33083E3C031C4D
:10054000AA2AA32ADA164820C330AD005030AE00E4
:100550000030C92A851EA22A20304320C330AD00B6
:100560005030AE000130C92A851EA22A2030432017
:100570000230C92A213043200330C92A22304320C7
:100580000430C92A233043200530C92A24304320AF
:100590000630D1005A1E1A2B1330AD008830AE0041
:1005A0007C20031033080318330FB70732080318F1
:1005B000320FB60731080318310FB507300803189A
:1005C000300FB4073A08B300B201B101B001031013
:1005D00033080318330FB70732080318320FB60772
:1005E00031080318310FB50730080318300FB4076E
:1005F0003408B0003508B1003608B2003708B3003F
:100600003108013C031C132B031D102B3208863CC0
:10061000031C132B031D102B33089F3C031C132BAF
:100620000721851ACC2AB401B501B601B701BA0178
:10063000BB01CC2A7C20D1080319252B0310B30D54
:10064000B20DB10DB00DD10B1E2B300831043204A8
:1006500033040319AF2BB01BBA2B3008310432041A
:10066000031D992BD408031D3B2B0130D400C3304C
:10067000D5005030D6003E30330203184D2B4030A9
:10068000851EDA065A1F4D2B0230B400FA30B50031
:10069000F030B6008030B700562B5A130030B4004B
:1006A0004C30B5004B30B6004030B700B001B1015E
:1006B000B201B301031037080318370FB307360828
:1006C0000318360FB20735080318350FB107340881
:1006D0000318340FB007D403031D5A2BB401B5011E
:1006E0005508B6005608B700D701D801D9019B2399
:1006F00003143708031C370FB3023608031C360FE8
:10070000B2023508031C350FB1023408031C340F44
:10071000B002031C912BD90A0319D80A0319D70A6E
:10072000772BB0015708B1005808B2005908B30040
:10073000DA170721702A4F081820AF004A304F07F8
:100740008400000886002F088500D00A501BCF0ABD
:1007500050134F08043C031CCF01640000341430D4
:10076000522014305920143060201430672000309B
:100770006E20702A0E305220143059201430602020
:0A0780001430672014306E20702A38
:02400E00063F6B
:00000001FF
