:020000040000FA
:1000000045288207DD348434E934E534B43475346A
:100010007D34C434FD34F534FC343D345934AD34CE
:10002000793478342D340D342C3439342834DF3499
:100030000034FF348207F734FB34FE34FD34FF34E0
:1000400082070534F534E1340034003498349634B2
:10005000803400340F344234403400340134863468
:10006000A034003400342734103400340034033416
:10007000E834003400340034643400340034003494
:100080000A34003400340034013400308316850013
:100090008312850100308316860083128601CF010A
:1000A000D0011630C800FE232730CC23DB015A30A4
:1000B0008400003018240330DA05AF01A02361303A
:1000C000AD00A830AE00E221851A6A282F14013055
:1000D000DA065E282F1C72280330DA055A308400B5
:1000E00000300524B401B501B601B701BA01BB0166
:1000F00083160030850000308600831264002030B3
:100100008316810083125A1892290730AD00D0302F
:10011000AE002530CC23E2216130AD00A830AE0026
:10012000D20A3208C039031DCA28B21AC628321AA8
:10013000C228B219BE283219B828B218AE2832180F
:10014000AE2833083E3C031CAE28A7285B16D123FB
:10015000C330AD005030AE000030CD28851EA6283B
:100160002030CC23C330AD005030AE000130CD285C
:10017000851EA6282030CC230230CD282130CC2368
:100180000330CD282230CC230430CD282330CC239B
:100190000530CD282430CC230630D100E221D1080F
:1001A0000319D9280310B30DB20DB10DB00DD10B49
:1001B000D228300831043204330403197C29B01BDF
:1001C00087290030B4000030B5000330B600E730B6
:1001D000B70003143308031C330FB7023208031CA3
:1001E000320FB6023108031C310FB5023008031C70
:1001F000300FB402031C7A29D408031D05290130ED
:10020000D400C330D5005030D600B204031D2D29D0
:10021000DB123E30330203182329851A17290230D6
:10022000DA060330DA055A30840000300524DA1C7F
:1002300023295B170230B400FA30B500F030B60065
:100240008030B70037295B130030B4004C30B50064
:100250004B30B6004030B70037295B13DB16003057
:10026000B4000730B500A130B6002030B700B001AF
:10027000B101B201B301031037080318370FB307F8
:1002800036080318360FB20735080318350FB107C3
:1002900034080318340FB007D403031D3B29B401FD
:1002A000B5015508B6005608B700D701D801D901E5
:1002B000B82303143708031C370FB3023608031C96
:1002C000360FB2023508031C350FB1023408031C87
:1002D000340FB002031C7229D90A0319D80A031972
:1002E000D70A5829B0015708B1005808B200590878
:1002F000B300DB17612272281630DB231630E223AD
:100300001630E9231630F0230030F72372280E3020
:10031000DB231630E2231630E9231630F0231630A3
:10032000F7237228D1231330AD008830AE00E221CC
:10033000031033080318330FB70732080318320FBE
:10034000B60731080318310FB50730080318300F0E
:10035000B4073A08B300B201B101B0010310330889
:100360000318330FB70732080318320FB6073108E6
:100370000318310FB50730080318300FB4073408DD
:10038000B0003508B1003608B2003708B3003108B4
:10039000013C031CDA29031DD7293208863C031CC3
:1003A000DA29031DD72933089F3C031CDA2961226F
:1003B000851A9329B401B501B601B701BA01BB0191
:1003C00061229329B001B101B201B301D501D60177
:1003D000D401DB13AC015A1CF1290108BA003B0817
:1003E000BA028101000000004F081A20AF004A3015
:1003F0004F078400000886002F088500D00A501B94
:10040000CF0A50134F08043C031CCF010108B3006E
:100410000130AC1F0301B31B0301B2070318B10A7B
:10042000B11B602A00000000AE080319AD03AE0343
:1004300064000A30D30033082C060319472A013020
:100440003302031D2B2A2E08B9002D08B8000730EF
:10045000D3000000472A0630D3000000000000004F
:1004600000000000FF3054020318472A0000023049
:10047000D3003808D5003908D60003142E08031C11
:100480002E0FD6022D08031C2D0FD502D40A5308B7
:10049000FF3E031D482A3308AC00000000000000A6
:1004A00000002D082E04031DF4290108B300BB0031
:1004B0000130AC1F0301B31B0301B2070318B10ADB
:1004C00000345B08F039031DFD2A5A18FD2A00305C
:1004D000B4009830B5009630B6007F30B7000314F2
:1004E0003308031C330FB7023208031C320FB60265
:1004F0003108031C310FB5023008031C300FB40261
:1005000003189A2AB401B5010130B600F430B700DF
:10051000031037080318370FB30736080318360FD0
:10052000B20735080318350FB10734080318340F24
:10053000B007FD2A0030B4000F30B5004230B600DD
:100540003F30B70003143308031C330FB7023208DF
:10055000031C320FB6023108031C310FB5023008FC
:10056000031C300FB4020318CC2AB401B501B60144
:100570003230B700031037080318370FB3073608B7
:100580000318360FB20735080318350FB1073408C2
:100590000318340FB007FD2A0030B4000130B50055
:1005A0008630B6009F30B70003143308031C330FA6
:1005B000B7023208031C320FB6023108031C310F98
:1005C000B5023008031C300FB4020318FD2AB40131
:1005D000B501B6010530B700031037080318370F0F
:1005E000B30736080318360FB20735080318350F5E
:1005F000B10734080318340FB007A7014030840056
:10060000640027082020A800A70A27082020A900A6
:10061000A70A27082020AA00A70A27082020AB0045
:10062000A70A800103142B08031C2B0FB3022A080E
:10063000031C2A0FB2022908031C290FB102280843
:10064000031C280FB002031C272B800A122B031057
:100650002B0803182B0FB3072A0803182A0FB20719
:1006600029080318290FB10728080318280FB00715
:10067000840A24302702031D002BDB1F662B5B1B23
:100680005C2BDB1A522B443084008008031D4F2B57
:1006900016308000840A8008031D4F2B8000C61787
:1006A000C817902B443084008008031D592B163046
:1006B0008000C717C817922B443084008008031DA0
:1006C000632B16308000C517C817922B5B135A187E
:1006D000902B5B1A882B403084008008031D852BEB
:1006E000840A8008031D852B840A8008031D852B3E
:1006F000840A8008031D832B840A8008031D832B32
:10070000C5171630932BC517922B5218C217922B70
:100710005B12521C902BC417C517C617C717C817F2
:10072000443084000008DB23840A0008E223840AA2
:100730000008E923840A0008F023840A0008F72B44
:100740005A18AD2B0F30DB231430E2230E30E9238F
:100750001530F0231630F72300340C30DB23103033
:10076000E2231130E9231230F0231330F723003451
:100770004F081A20AF004A304F0784000008860057
:100780002F088500D00A501BCF0A50134F08043C95
:10079000031CCF01640000346400831681008312BF
:1007A00000346400810183162730810064002F30FB
:1007B000810083120034CA007F390120CA1B02382D
:1007C000CA000034CB007F390120CB1B0238CB009C
:1007D0000034CC007F390120CC1B0238CC0000341F
:1007E000CD007F390120CD1B0238CD000034CE0072
:1007F0007F390120CE1B0238CE0000340030CA0001
:10080000CB00CC00CD00CE0000348B1383169B00B0
:100810008312000883169A001C158B1355309D0017
:10082000AA309D009C149C18132C1C1183120034B8
:10083000AF008B1383169B001C141A0883128000D0
:040840002F08080075
:02400E00063F6B
:024200000000BC
:00000001FF
