:020000040000FA
:10000000A1298207DD348434E934E534B43475340D
:100010007D34C434FD34F534FC343D342934AD34FE
:10002000793478345D34BC3408340034FF34F83427
:1000300028342D34F4340D3439347534E93418341B
:10004000853439341934DC341D3421348207F734D3
:10005000FB34FE34FD34FF34820700349834963488
:10006000803400340F344234403400340134863458
:10007000A034003400342734103400340034033406
:10008000E834003400340034643400340034003484
:100090000A3400340034003401343C088207B12AA9
:1000A000BC2AD22ADA2AE22AEA2AF52AF72AF92AE7
:1000B000FB2AFD2AB12A3C088207082B092B102BAA
:1000C0001E2B2B2B302B332B332B332B332B082B8B
:1000D000640083168100831200346400810183165A
:1000E0002730810064002F308100831200340030FB
:1000F00086008B016400810183162B3081008312FE
:10010000630000000800C9007F390120C91B0238C4
:10011000C9000034CA007F390120CA1B0238CA0056
:100120000034CB007F390120CB1B0238CB000034D8
:10013000CC007F390120CC1B0238CC000034CD002C
:100140007F390120CD1B0238CD0000340030C900BA
:10015000CA00CB00CC00CD0000348B1383169B006B
:100160008312000883169A001C158B1355309D00CE
:10017000AA309D009C149C18BB281C1183120034CB
:10018000AF008B1383169B001C141A088312800087
:100190002F080800C020013E840AC020013E840AC6
:1001A000C020013E840AC028B001B101B201B301F0
:1001B000AC018101000000004E082620AF0049304C
:1001C0004E078400000886002F088500CF0A4F1BC9
:1001D000CE0A4F134E08043C031CCE010108B300A5
:1001E0000130AC1F0301B31B0301B2070318B10AAE
:1001F000B11B18293308AC00AE080319AD03AE03D8
:1002000064000C30FF3E031D0229000000000000C6
:10021000000000002D082E04031DDC280108B30097
:100220000130AC1F0301B31B0301B2070318B10A6D
:1002300000340008840AB0000008840AB1000008F5
:10024000840AB2000008840AB300A7014030840089
:10025000640027082C20A800A70A27082C20A90042
:10026000A70A27082C20AA00A70A27082C20AB00E1
:10027000A70A80012B08B3022A0803184429B202F6
:1002800003190310B2034529B202290803184D29A6
:10029000B10203190310B1034E29B1022808031853
:1002A0005629B00203190310B0035729B002031CEA
:1002B0005B29800A3A292B08B3072A08031C652901
:1002C000B207B20A031903146629B2072908031CEE
:1002D0006E29B107B10A031903146F29B107280861
:1002E000031C7729B007B00A031903147829B00753
:1002F000840A20302702031D28294030840080080A
:10030000031D9229840A8008031D9229840A80080B
:10031000031D8F29840A8008031D8F29840A511820
:10032000C4179329C11700088320840A00088A2073
:10033000840A00089120840A00089820840A000892
:100340009F280030831685008312850100308316B4
:10035000860083128601CE01CF011330C80014300D
:10036000832014308A2014309120143098201430C7
:100370009F20273068206130AD00A830AE00D42027
:10038000D201D401383084000030CA2055308400B6
:100390002030C020A6208316003085000030860063
:1003A0008312640020308316810083120630AD0072
:1003B0008230AE0025306820D4203030AD00D430FB
:1003C000AE00D10AD20A3208C039031D182AB21A67
:1003D000142A321A102AB2190C2A3219092AB21810
:1003E000092A3218092A3308343C031C092A6D20D3
:1003F000D20AD20AD20AC330AD005030AE0000306B
:100400001C2A6D20D20A6130AD00A830AE00013048
:100410001C2A6D2002301C2A2030682003301C2A40
:100420002130682004301C2A2230682005301C2A24
:100430002330682006301C2AD000D420551C4D2AB9
:100440005418A62033085302AF00AF1F292AAF0962
:10045000AF0A2F080A3C0318322A5410D20133087D
:10046000D3004D2A54183E2A52083C3C0318472A10
:100470000D30D20054143308D300492A52080E3CE0
:100480000318492AD2013308D300D2014D2A541C43
:100490004D2A772077207720932AD0080319572AEE
:1004A0000310B30DB20DB10DB00DD00B502A3008B2
:1004B0003104320433040319962AB01BA12A3008F0
:1004C000B4003108B5003208B6003308B7003B0865
:1004D000B3073A08031C712AB207B20A03190314BE
:1004E000722AB2073908031C7A2AB107B10A031924
:1004F00003147B2AB1073808031C832AB007B00A0B
:1005000003190314842AB007B01F922AB009B10955
:10051000B209B309B30F922AB20F922AB10F922AED
:10052000B00F922A2521851E352BCB29133083202D
:1005300013308A20133091201330982000309F20F0
:10054000932A0E30832013308A20133091201330E9
:10055000982013309F20CB291330AD008830AE0097
:10056000D4281830832019308A20123091201A3074
:10057000982013309F20AC2A551CC82A15308320A0
:100580001B308A200A309120223098200E30BA2A5F
:100590002130832017308A20153091201B3098207D
:1005A0002230BA2A0A3083200D308A200D30912063
:1005B0001330B82A1B30832019308A200B30912049
:1005C0001330B82A1C3083200E308A201630912038
:1005D0001730B82A1A3083200A308A200B30912035
:1005E000203098200E309F20AC2A0430FF2A08309B
:1005F000FF2A0C30FF2A1030FF2A1430FF2AAF00E8
:10060000343084002F08CA20343084001921AC2AE9
:10061000C0290130D506553084002030AD20AC2AE9
:10062000343084000030AD20840A0130AD20840ACB
:100630000230AD20840A0330AD20C029B409B509C9
:10064000B609B709B70F2A2BB60F2A2BB50F2A2BDD
:10065000B40F2A2B102BB401B501B601B701102B32
:100660000630BC00432B0230312BBC0115308320F7
:1006700016308A20173091201030982013309F2098
:10068000AC22851E402BD10A4D20851A432B0A30FF
:10069000BD00851A542BAC22BD0B492BA620AC22E1
:1006A0004D20851E4E2B5B283C08053C03195C2B16
:1006B000031C5E2BBC0A432BBC01432B3C080A3CA9
:1006C0000319662B031C692BBC0A432B0630BC00A4
:0606D000432BBC01432B8B
:084000000100020003000400AE
:02400E00063F6B
:10420000000000000000000000000600F10058005F
:1042100000003D0005001800000040000000000004
:1042200000004300A600D3000000A3004400E0000B
:0242400000007C
:00000001FF
