:020000040000FA
:10000000A1298207DD348434E934E534B43475340D
:100010007D34C434FD34F534FC343D342934AD34FE
:10002000793478345D34BC3408340034FF34F83427
:1000300028342D34F4340D3439347534E93418341B
:10004000853439341934DC341D3421348207F734D3
:10005000FB34FE34FD34FF34820700349834963488
:10006000803400340F344234403400340134863458
:10007000A034003400342734103400340034033406
:10008000E834003400340034643400340034003484
:100090000A3400340034003401343C088207B62AA4
:1000A000C12AD72ADF2AE72AEF2AFA2AFC2AFE2ABF
:1000B000002B022BB62A3C0882070D2B0E2B152B8A
:1000C000232B302B352B382B382B382B382B0D2B63
:1000D000640083168100831200346400810183165A
:1000E0002730810064002F308100831200340030FB
:1000F00086008B016400810183162B3081008312FE
:10010000630000000800C9007F390120C91B0238C4
:10011000C9000034CA007F390120CA1B0238CA0056
:100120000034CB007F390120CB1B0238CB000034D8
:10013000CC007F390120CC1B0238CC000034CD002C
:100140007F390120CD1B0238CD0000340030C900BA
:10015000CA00CB00CC00CD0000348B1383169B006B
:100160008312000883169A001C158B1355309D00CE
:10017000AA309D009C149C18BB281C1183120034CB
:10018000AF008B1383169B001C141A088312800087
:100190002F080800C020013E840AC020013E840AC6
:1001A000C020013E840AC028B001B101B201B301F0
:1001B000AC018101000000004E082620AF0049304C
:1001C0004E078400000886002F088500CF0A4F1BC9
:1001D000CE0A4F134E08043C031CCE010108B300A5
:1001E0000130AC1F0301B31B0301B2070318B10AAE
:1001F000B11B18293308AC00AE080319AD03AE03D8
:1002000064000C30FF3E031D0229000000000000C6
:10021000000000002D082E04031DDC280108B30097
:100220000130AC1F0301B31B0301B2070318B10A6D
:1002300000340008840AB0000008840AB1000008F5
:10024000840AB2000008840AB300A7014030840089
:10025000640027082C20A800A70A27082C20A90042
:10026000A70A27082C20AA00A70A27082C20AB00E1
:10027000A70A80012B08B3022A0803184429B202F6
:1002800003190310B2034529B202290803184D29A6
:10029000B10203190310B1034E29B1022808031853
:1002A0005629B00203190310B0035729B002031CEA
:1002B0005B29800A3A292B08B3072A08031C652901
:1002C000B207B20A031903146629B2072908031CEE
:1002D0006E29B107B10A031903146F29B107280861
:1002E000031C7729B007B00A031903147829B00753
:1002F000840A20302702031D28294030840080080A
:10030000031D9229840A8008031D9229840A80080B
:10031000031D8F29840A8008031D8F29840A511820
:10032000C4179329C11700088320840A00088A2073
:10033000840A00089120840A00089820840A000892
:100340009F280030831685008312850100308316B4
:10035000860083128601CE01CF011330C80014300D
:10036000832014308A2014309120143098201430C7
:100370009F20273068206130AD00A830AE00D42027
:10038000D201D401383084000030CA2055308400B6
:100390002030C020A6208316003085000030860063
:1003A0008312640020308316810083120630AD0072
:1003B0008230AE0025306820D4203030AD00D430FB
:1003C000AE00D10AD20A3208C039031D1D2AB21A62
:1003D000192A321A152AB219112A32190E2AB218FC
:1003E0000E2A32180E2A3308363C031C0E2A330814
:1003F000053C031C062AFC296D20D20AD20AD20A27
:10040000C330AD005030AE000030212A6D20D20A3A
:100410006130AD00A830AE000130212A6D200230DD
:10042000212A203068200330212A2130682004301E
:10043000212A223068200530212A23306820063006
:10044000212AD000D420551C522A5418A620330843
:100450005302AF00AF1F2E2AAF09AF0A2F080A3C84
:100460000318372A5410D2013308D300522A5418E3
:10047000432A52083C3C03184C2A0D30D200541435
:100480003308D3004E2A52080E3C03184E2AD201DC
:100490003308D300D201522A541C522A77207720E5
:1004A0007720982AD00803195C2A0310B30DB20DE7
:1004B000B10DB00DD00B552A30083104320433048D
:1004C00003199B2AB01BA62A3008B4003108B500D6
:1004D0003208B6003308B7003B08B3073A08031CDC
:1004E000762AB207B20A03190314772AB207390829
:1004F000031C7F2AB107B10A03190314802AB1072C
:100500003808031C882AB007B00A03190314892A83
:10051000B007B01F972AB009B109B209B309B30FE8
:10052000972AB20F972AB10F972AB00F972A252141
:10053000851E3A2BCB291330832013308A201330A9
:1005400091201330982000309F20982A0E3083206D
:1005500013308A20133091201330982013309F20BD
:10056000CB291330AD008830AE00D428183083205A
:1005700019308A20123091201A30982013309F2091
:10058000B12A551CCD2A153083201B308A200A3011
:100590009120223098200E30BF2A2130832017303E
:1005A0008A20153091201B3098202230BF2A0A3033
:1005B00083200D308A200D3091201330BD2A1B304E
:1005C000832019308A200B3091201330BD2A1C3033
:1005D00083200E308A20163091201730BD2A1A3021
:1005E00083200A308A200B309120203098200E3052
:1005F0009F20B12A0430042B0830042B0C30042B2C
:100600001030042B1430042BAF00343084002F083A
:10061000CA20343084001921B12AC0290130D506FE
:10062000553084002030AD20B12A343084000030B1
:10063000AD20840A0130AD20840A0230AD20840A46
:100640000330AD20C029B409B509B609B709B70F01
:100650002F2BB60F2F2BB50F2F2BB40F2F2B152BA6
:10066000B401B501B601B701152B0630BC00482B0B
:100670000230362BBC011530832016308A2017300B
:1006800091201030982013309F20B122851E452BD9
:10069000D10A4D20851A482B0A30BD00851A592BE6
:1006A000B122BD0B4E2BA620B1224D20851E532B0F
:1006B0005B283C08053C0319612B031C632BBC0A17
:1006C000482BBC01482B3C080A3C03196B2B031C2C
:1006D0006E2BBC0A482B0630BC00482BBC01482BB3
:084000000100020003000400AE
:02400E00063F6B
:10420000000000000000000000000600F10058005F
:1042100000003D0005001800000040000000000004
:1042200000004300A600D3000000A3004400E0000B
:0242400000007C
:00000001FF
