:020000040000FA
:100000004A2A8207DD348434E934E534B434753463
:100010007D34C434FD34F534FC343D345934AD34CE
:10002000793478342D340D342C3439340034FF34A1
:100030008207F734FB34FE34FD34FF34820700348A
:1000400098349634803400340F34423440340034D1
:1000500001348634A03400340034273410340034A2
:1000600000340334E83400340034003464340034A1
:10007000003400340A3400340034003401346400A5
:1000800083168100831200346400810183162730B7
:10009000810064002F30810083120034C9007F3951
:1000A0000120C91B0238C9000034CA007F39012071
:1000B000CA1B0238CA000034CB007F390120CB1B99
:1000C0000238CB000034CC007F390120CC1B023831
:1000D000CC000034CD007F390120CD1B0238CD008B
:1000E00000340030C900CA00CB00CC00CD00003481
:1000F000B001B101B201B301D401D501D301D913CB
:10010000AC01591E87280108BA003B08BA028101D8
:10011000000000004E081820AF0049304E07840050
:10012000000886002F088500CF0A4F1BCE0A4F1308
:100130004E08043C031CCE010108B3000130AC1F83
:100140000301B31B0301B2070318B10AB11BF62860
:1001500000000000AE080319AD03AE0364000A30CE
:10016000D20033082C060319DD2801303302031DA9
:10017000C1282E08B9002D08B8000730D2000000B1
:10018000DD280630D2000000000000000000000062
:10019000503E53020318DD2800000230D200380818
:1001A000D4003908D50003142E08031C2E0FD502E5
:1001B0002D08031C2D0FD402D30A5208FF3E031D45
:1001C000DE283308AC0000000000000000002D080D
:1001D0002E04031D8A280108B300BB000130AC1FA8
:1001E0000301B31B0301B2070318B10A003400086E
:1001F000840AB0000008840AB1000008840AB20032
:100200000008840AB3005908F039031D9D29003005
:10021000B4009830B5009630B6007F30B7000314B4
:100220003308031C330FB7023208031C320FB60227
:100230003108031C310FB5023008031C300FB40223
:1002400003183A29B401B5010130B600F430B70003
:10025000031037080318370FB30736080318360F93
:10026000B20735080318350FB10734080318340FE7
:10027000B0079D290030B4000F30B5004230B60001
:100280003F30B70003143308031C330FB7023208A2
:10029000031C320FB6023108031C310FB5023008BF
:1002A000031C300FB40203186C29B401B501B60168
:1002B0003230B700031037080318370FB30736087A
:1002C0000318360FB20735080318350FB107340885
:1002D0000318340FB0079D290030B4000130B50079
:1002E0008630B6009F30B70003143308031C330F69
:1002F000B7023208031C320FB6023108031C310F5B
:10030000B5023008031C300FB40203189D29B40154
:10031000B501B6010530B700031037080318370FD1
:10032000B30736080318360FB20735080318350F20
:10033000B10734080318340FB007A7014030840018
:10034000640027081E20A800A70A27081E20A9006D
:10035000A70A27081E20AA00A70A27081E20AB000C
:10036000A70A80012B08B3022A080318BC29B2028D
:1003700003190310B203BD29B20229080318C529C5
:10038000B10203190310B103C629B10228080318EA
:10039000CE29B00203190310B003CF29B002031C09
:1003A000D329800AB2292B08B3072A08031CDD29A8
:1003B000B207B20A03190314DE29B2072908031C85
:1003C000E629B107B10A03190314E729B107280880
:1003D000031CEF29B007B00A03190314F029B00772
:1003E000840A20302702031DA029D91F162A591F6D
:1003F000052A433084008008031D002A1430800041
:10040000511C3C2AC417C7173C2A4330840080087B
:10041000031D112A14308000840A8008031D112A4C
:100420008000511C3A2AC517C7173A2A5913591A7E
:100430003A2AD91A352A403084008008031D332A0D
:10044000840A8008031D332A840A8008031D302A89
:10045000840A8008031D302A5118C41714303D2A1D
:100460005118C4173C2AC1173C2AD912511CC31772
:100470005118C4174330840000084E20840A000835
:100480005520840A00085C20840A00086320840A3E
:1004900000086A2800308316850083128501003029
:1004A0008316860083128601CE01CF011430C80066
:1004B00015304E201530552015305C201530632046
:1004C00015306A2027303F206130AD00A830AE00E3
:1004D0007820D901851A802A59160C304E20103008
:1004E000552011305C201230632013306A20133005
:1004F000AD008830AE0078200230CD06851E772A08
:10050000B401B501B601B701BA01BB0183160030D1
:10051000850000308600831264002030831681003D
:1005200083120730AD00D030AE0025303F20782058
:100530003030AD00D430AE00D10A3208C039031DCE
:10054000DA2AB21AD62A321AD22AB219CE2A321985
:10055000C42AB218BA2A3218BA2A33083E3C031CFD
:10056000BA2AB32AD9164420C330AD005030AE00A9
:100570000030DD2A851EB22A20303F20C330AD0076
:100580005030AE000130DD2A851EB22A20303F20D7
:100590006130AD00A830AE000230DD2A20303F20AF
:1005A0000330DD2A21303F200430DD2A22303F2075
:1005B0000530DD2A23303F200630D000591E2E2B77
:1005C0001330AD008830AE007820031033080318D4
:1005D000330FB70732080318320FB6073108031874
:1005E000310FB50730080318300FB4073A08B300CD
:1005F000B201B101B001031033080318330FB7077C
:1006000032080318320FB60731080318310FB50747
:1006100030080318300FB4073408B0003508B100B3
:100620003608B2003708B3003108013C031C272B01
:10063000031D242B3208863C031C272B031D242B6F
:1006400033089F3C031C272B0321851AE02AB401A1
:10065000B501B601B701BA01BB01E02A7820D00884
:100660000319392B0310B30DB20DB10DB00DD00B22
:10067000322B30083104320433040319C32BB01B6E
:10068000CE2B300831043204031DAD2BD308031DDB
:100690004F2B0130D300C330D4005030D5003E3052
:1006A00033020318612B4030851ED906591F612B78
:1006B0000230B400FA30B500F030B6008030B70038
:1006C0006A2B59130030B4004C30B5004B30B600E3
:1006D0004030B700B001B101B201B30103103708D7
:1006E0000318370FB30736080318360FB20735085B
:1006F0000318350FB10734080318340FB007D303BC
:10070000031D6E2BB401B5015408B6005508B7009F
:10071000D601D701D801AF2303143708031C370FC4
:10072000B3023608031C360FB2023508031C350F1E
:10073000B1023408031C340FB002031CA52BD80AE5
:100740000319D70A0319D60A8B2BB0015608B1003A
:100750005708B2005808B300D9170321802A4E0861
:100760001820AF0049304E078400000886002F088B
:100770008500CF0A4F1BCE0A4F134E08043C031CC2
:10078000CE016400003414304E2014305520143053
:100790005C201430632000306A20802A0E304E2006
:1007A0001430552014305C201430632014306A203B
:0207B000802A9D
:02400E00063F6B
:00000001FF
