:020000040000FA
:1000000045288207DD348434E934E534B43475346A
:100010007D34C434FD34F534FC343D345934AD34CE
:10002000793478342D340D342C3439342834DF3499
:100030000034FF348207F734FB34FE34FD34FF34E0
:1000400082070534F534E1340034003498349634B2
:10005000803400340F344234403400340134863468
:10006000A034003400342734103400340034033416
:10007000E834003400340034643400340034003494
:100080000A34003400340034013400308316850013
:100090008312850100308316860083128601CF010A
:1000A000D0011630C8002730C023DB015A3084004D
:1000B00000300C24F2235A080139DB00922361300E
:1000C000AD00A830AE00D621851A69280130DB06C4
:1000D0005E285B080139DA005A3084000030F923C9
:1000E000B401B501B601B701BA01BB0183160030F6
:1000F0008500003086008312640020308316810062
:1001000083125B1888290730AD00D030AE0025304F
:10011000C023D6216130AD00A830AE00D20A32082B
:10012000C039031DC828B21AC428321AC028B2190F
:10013000BC283219B628B218AC283218AC283308BB
:100140003E3C031CAC28A5285B16C523C330AD007C
:100150005030AE000030CB28851EA4282030C023AC
:10016000C330AD005030AE000130CB28851EA4282E
:100170002030C0230230CB282130C0230330CB28CD
:100180002230C0230430CB282330C0230530CB28B5
:100190002430C0230630D100D621D1080319D72836
:1001A0000310B30DB20DB10DB00DD10BD028300836
:1001B00031043204330403197229B01B7D29003045
:1001C000B4000030B5000330B600E730B7000314C8
:1001D0003308031C330FB7023208031C320FB60278
:1001E0003108031C310FB5023008031C300FB40274
:1001F000031C7029D408031D03290130D400C33027
:10020000D5005030D600B204031D2329DB123E3046
:100210003302031819294030851EDB065B1F19299C
:100220000230B400FA30B500F030B6008030B700CC
:100230002D295B130030B4004C30B5004B30B600B4
:100240004030B7002D295B13DB160030B4000730B7
:10025000B500A130B6002030B700B001B101B20145
:10026000B301031037080318370FB3073608031814
:10027000360FB20735080318350FB10734080318D5
:10028000340FB007D403031D3129B401B50155085B
:10029000B6005608B700D701D801D901AC23031422
:1002A0003708031C370FB3023608031C360FB2029F
:1002B0003508031C350FB1023408031C340FB0029B
:1002C000031C6829D90A0319D80A0319D70A4E2929
:1002D000B0015708B1005808B2005908B300DB1745
:1002E000552270281630CF231630D6231630DD2342
:1002F0001630E4230030EB2370280E30CF23163065
:10030000D6231630DD231630E4231630EB23702875
:100310001330AD008830AE00D62103103308031827
:10032000330FB70732080318320FB6073108031826
:10033000310FB50730080318300FB4073A08B3007F
:10034000B201B101B001031033080318330FB7072E
:1003500032080318320FB60731080318310FB507FA
:1003600030080318300FB4073408B0003508B10066
:100370003608B2003708B3003108013C031CCF290E
:10038000031DCC293208863C031CCF29031DCC2930
:1003900033089F3C031CCF295522851A8829B401B4
:1003A000B501B601B701BA01BB018829B001B1019D
:1003B000B201B301D501D601D401DB13AC015B1C42
:1003C000E5290108BA003B08BA02810100000000DB
:1003D0004F081A20AF004A304F07840000088600FB
:1003E0002F088500D00A501BCF0A50134F08043C39
:1003F000031CCF010108B3000130AC1F0301B31B84
:100400000301B2070318B10AB11B542A000000000F
:10041000AE080319AD03AE0364000A30D3003308FD
:100420002C0603193B2A01303302031D1F2A2E0814
:10043000B9002D08B8000730D30000003B2A063071
:10044000D30000000000000000000000FF30540254
:1004500003183B2A00000230D3003808D5003908C1
:10046000D60003142E08031C2E0FD6022D08031CE1
:100470002D0FD502D40A5308FF3E031D3C2A330832
:10048000AC0000000000000000002D082E04031D39
:10049000E8290108B300BB000130AC1F0301B31B06
:1004A0000301B2070318B10A00345B08F139031DD8
:1004B000EF2A0030B4009830B5009630B6007F3097
:1004C000B70003143308031C330FB7023208031CB0
:1004D000320FB6023108031C310FB5023008031C7D
:1004E000300FB40203188C2AB401B5010130B600F4
:1004F000F430B700031037080318370FB307360876
:100500000318360FB20735080318350FB107340842
:100510000318340FB007EF2A0030B4000F30B500D5
:100520004230B6003F30B70003143308031C330FCA
:10053000B7023208031C320FB6023108031C310F18
:10054000B5023008031C300FB4020318BE2AB401F0
:10055000B501B6013230B700031037080318370F62
:10056000B30736080318360FB20735080318350FDE
:10057000B10734080318340FB007EF2A0030B40075
:100580000130B5008630B6009F30B7000314330841
:10059000031C330FB7023208031C320FB6023108B6
:1005A000031C310FB5023008031C300FB4020318CE
:1005B000EF2AB401B501B6010530B70003103708C2
:1005C0000318370FB30736080318360FB20735087C
:1005D0000318350FB10734080318340FB007A7010B
:1005E00040308400640027082020A800A70A2708BC
:1005F0002020A900A70A27082020AA00A70A270868
:100600002020AB00A70A800103142B08031C2B0F2A
:10061000B3022A08031C2A0FB2022908031C290F5F
:10062000B1022808031C280FB002031C192B800AF2
:10063000042B03102B0803182B0FB3072A080318E9
:100640002A0FB20729080318290FB1072808031831
:10065000280FB007840A24302702031DF22ADB1F6B
:10066000582B5B1B4E2BDB1A442B44308400800834
:10067000031D412B16308000840A8008031D412B86
:100680008000C617C817822B443084008008031DE1
:100690004B2B16308000C717C817842B44308400BA
:1006A0008008031D552B16308000C517C817842BF2
:1006B0005B135B18822B5B1A7A2B40308400800816
:1006C000031D772B840A8008031D772B840A80087A
:1006D000031D772B840A8008031D752B840A80086C
:1006E000031D752BC5171630852BC517842B521883
:1006F000C217842B5B12521C822BC417C517C61756
:10070000C717C817443084000008CF23840A0008A4
:10071000D623840A0008DD23840A0008E423840A1F
:100720000008EB2B5B080139031DA12B0F30CF23F1
:100730001430D6230E30DD231530E4231630EB239E
:1007400000340C30CF231030D6231130DD2312308B
:10075000E4231330EB2300344F081A20AF004A3053
:100760004F078400000886002F088500D00A501B20
:10077000CF0A50134F08043C031CCF01640000341F
:1007800064008316810083120034640081018316A3
:100790002730810064002F30810083120034CA00AA
:1007A0007F390120CA1B0238CA000034CB007F39D0
:1007B0000120CB1B0238CB000034CC007F39012054
:1007C000CC1B0238CC000034CD007F390120CD1B7A
:1007D0000238CD000034CE007F390120CE1B023814
:1007E000CE0000340030CA00CB00CC00CD00CE00DB
:1007F00000348B1383169B008312000883169A0023
:100800001C158B1355309D00AA309D009C149C181C
:10081000072C1C1183120034AF008B1383169B002E
:0C0820001C141A08831280002F08080026
:02400E00063F6B
:024200000000BC
:00000001FF
