:020000040000FA
:1000000045288207DD348434E934E534B43475346A
:100010007D34C434FD34F534FC343D345934AD34CE
:10002000793478342D340D342C3439342834DF3499
:100030000034FF348207F734FB34FE34FD34FF34E0
:1000400082070534F534E1340034003498349634B2
:10005000803400340F344234403400340134863468
:10006000A034003400342734103400340034033416
:10007000E834003400340034643400340034003494
:100080000A34003400340034013400308316850013
:100090008312850100308316860083128601C40115
:1000A000C5011630BD00FE232730CC23CF015030D0
:1000B0008400003018240330D005A801A02361304B
:1000C000A600A830A700E221851A6A28281401306A
:1000D000D0065E28281C72280330D00550308400DA
:1000E00000300524AD01AE01AF01B001B301B40190
:1000F00083160030850000308600831264002030B3
:10010000831681008312501892290730A600D03040
:10011000A7002530CC23E2216130A600A830A7003B
:10012000C70A2B08C039031DCA28AB1AC6282B1AC8
:10013000C228AB19BE282B19B828AB18AE282B182B
:10014000AE282C083E3C031CAE28A7284F16D1230E
:10015000C330A6005030A7000030CD28851EA62849
:100160002030CC23C330A6005030A7000130CD286A
:10017000851EA6282030CC230230CD282130CC2368
:100180000330CD282230CC230430CD282330CC239B
:100190000530CD282430CC230630C600E221C60825
:1001A0000319D9280310AC0DAB0DAA0DA90DC60B70
:1001B000D22829082A042B042C0403197C29A91B02
:1001C00087290030AD000030AE000330AF00E730CB
:1001D000B00003142C08031C2C0FB0022B08031CC6
:1001E0002B0FAF022A08031C2A0FAE022908031C9A
:1001F000290FAD02031C7A29C908031D0529013006
:10020000C900C330CA005030CB00AB04031D2D29F8
:10021000CF123E302C0203182329851A17290230E9
:10022000D0060330D0055030840000300524D01CA7
:1002300023294F170230AD00FA30AE00F030AF0086
:100240008030B00037294F130030AD004C30AE0085
:100250004B30AF004030B00037294F13CF1600307D
:10026000AD000730AE00A130AF002030B000A901D2
:10027000AA01AB01AC01031030080318300FAC0722
:100280002F0803182F0FAB072E0803182E0FAA07ED
:100290002D0803182D0FA907C903031D3B29AD0124
:1002A000AE014A08AF004B08B000CC01CD01CE0131
:1002B000B82303143008031C300FAC022F08031CB2
:1002C0002F0FAB022E08031C2E0FAA022D08031CB1
:1002D0002D0FA902031C7229CE0A0319CD0A031996
:1002E000CC0A5829A9014C08AA004D08AB004E08B9
:1002F000AC00CF17612272281630DB231630E223C0
:100300001630E9231630F0230030F72372280E3020
:10031000DB231630E2231630E9231630F0231630A3
:10032000F7237228D1231330A6008830A700E221DA
:1003300003102C0803182C0FB0072B0803182B0FE1
:10034000AF072A0803182A0FAE0729080318290F38
:10035000AD073308AC00AB01AA01A90103102C08BA
:1003600003182C0FB0072B0803182B0FAF072A0810
:1003700003182A0FAE0729080318290FAD072D0807
:10038000A9002E08AA002F08AB003008AC002A08EC
:10039000013C031CDA29031DD7292B08863C031CCA
:1003A000DA29031DD7292C089F3C031CDA29612276
:1003B000851A9329AD01AE01AF01B001B301B401BB
:1003C00061229329A901AA01AB01AC01CA01CB01A9
:1003D000C901CF13A501501CF1290108B30034084D
:1003E000B30281010000000044081A20A8003F3039
:1003F000440784000008860028088500C50A451BBC
:10040000C40A45134408043C031CC4010108AC00A1
:100410000130A51F0301AC1B0301AB070318AA0A97
:10042000AA1B602A00000000A7080319A603A7035F
:1004300064000A30C8002C0825060319472A013039
:100440002C02031D2B2A2708B2002608B100073012
:10045000C8000000472A0630C80000000000000065
:1004600000000000FF3049020318472A0000023054
:10047000C8003108CA003208CB0003142708031C47
:10048000270FCB022608031C260FCA02C90A4808F8
:10049000FF3E031D482A2C08A500000000000000B4
:1004A000000026082704031DF4290108AC00B4004D
:1004B0000130A51F0301AC1B0301AB070318AA0AF7
:1004C00000344F08F039031DFD2A5018FD2A003072
:1004D000AD009830AE009630AF007F30B00003140E
:1004E0002C08031C2C0FB0022B08031C2B0FAF028F
:1004F0002A08031C2A0FAE022908031C290FAD028B
:1005000003189A2AAD01AE010130AF00F430B000FB
:10051000031030080318300FAC072F0803182F0FF3
:10052000AB072E0803182E0FAA072D0803182D0F4E
:10053000A907FD2A0030AD000F30AE004230AF00F9
:100540003F30B00003142C08031C2C0FB0022B0802
:10055000031C2B0FAF022A08031C2A0FAE02290826
:10056000031C290FAD020318CC2AAD01AE01AF0167
:100570003230B000031030080318300FAC072F08DA
:1005800003182F0FAB072E0803182E0FAA072D08EC
:1005900003182D0FA907FD2A0030AD000130AE0071
:1005A0008630AF009F30B00003142C08031C2C0FC2
:1005B000B0022B08031C2B0FAF022A08031C2A0FC2
:1005C000AE022908031C290FAD020318FD2AAD0154
:1005D000AE01AF010530B000031030080318300F32
:1005E000AC072F0803182F0FAB072E0803182E0F88
:1005F000AA072D0803182D0FA907A0013530840084
:10060000640020082020A100A00A20082020A200C9
:10061000A00A20082020A300A00A20082020A4006F
:10062000A00A800103142408031C240FAC02230831
:10063000031C230FAB022208031C220FAA0221086D
:10064000031C210FA902031C272B800A122B031065
:1006500024080318240FAC0723080318230FAB0743
:1006600022080318220FAA0721080318210FA9073F
:10067000840A24302002031D002BCF1F662B4F1B42
:100680005C2BCF1A522B393084008008031D4F2B6E
:1006900016308000840A8008031D4F2B8000BB1792
:1006A000BD17902B393084008008031D592B16305C
:1006B0008000BC17BD17922B393084008008031DC1
:1006C000632B16308000BA17BD17922B4F135018AA
:1006D000902B4F1A882B353084008008031D852B02
:1006E000840A8008031D852B840A8008031D852B3E
:1006F000840A8008031D832B840A8008031D832B32
:10070000BA171630932BBA17922B4718B717922B9C
:100710004F12471C902BB917BA17BB17BC17BD1740
:10072000393084000008DB23840A0008E223840AAD
:100730000008E923840A0008F023840A0008F72B44
:100740005018AD2B0F30DB231430E2230E30E92399
:100750001530F0231630F72300340C30DB23103033
:10076000E2231130E9231230F0231330F723003451
:1007700044081A20A8003F3044078400000886007F
:1007800028088500C50A451BC40A45134408043CD3
:10079000031CC401640000346400831681008312CA
:1007A00000346400810183162730810064002F30FB
:1007B000810083120034BF007F390120BF1B023843
:1007C000BF000034C0007F390120C01B0238C000C8
:1007D0000034C1007F390120C11B0238C100003440
:1007E000C2007F390120C21B0238C2000034C3009E
:1007F0007F390120C31B0238C30000340030BF0022
:10080000C000C100C200C30000348B1383169B00DC
:100810008312000883169A001C158B1355309D0017
:10082000AA309D009C149C18132C1C1183120034B8
:10083000A8008B1383169B001C141A0883128000D7
:04084000280808007C
:084000000100000000000000B7
:02400E00063F6B
:024200000000BC
:00000001FF
