:020000040000FA
:100000008A2982076F3422348F34AB34E234E934E6
:10001000ED342334EF34EB34E734EC348C34AE3449
:10002000CD34C5346D34E63404340034FF34C73481
:100030008434AC34E3342C34CC34E9348F34443459
:100040002A34CC344C348207F734FE34FB34FD348C
:10005000FF348207003498349634803400340F34EF
:1000600042344034003401348634A0340034003447
:1000700027341034003400340334E83400340034BE
:10008000003464340034003400340A340034003462
:10009000003401343C0882076D2A782A802A882A95
:1000A000902A9B2A9D2A9F2AA12A6D2A3C08820712
:1000B000AC2AAD2ABB2AC82ACD2AD02AD02AD02AD7
:1000C000D02AAC2A640083168100831200346400B5
:1000D000810183162730810064002F308100831254
:1000E0000034C9007F390120C91B1038C900003411
:1000F000CA007F390120CA1B1038CA000034CB0067
:100100007F390120CB1B1038CB000034CC007F3965
:100110000120CC1B1038CC000034CD007F390120E9
:10012000CD1B1038CD0000340030C900CA00CB0010
:10013000CC00CD0000348B1383169B008312000883
:1001400083169A001C158B1355309D00AA309D0014
:100150009C149C18A9281C1183128B170034AF0023
:100160008B1383169B001C141A0883128B178000B4
:100170002F080800AF20013E840AAF20013E840A08
:10018000AF20013E840AAF28B001B101B201B30132
:10019000AC018101000000004E082320AF0049306F
:1001A0004E078400000886002F088500CF0A4F1BE9
:1001B000CE0A4F134E08043C031CCE010108B300C5
:1001C0000130AC1F0301B31B0301B2070318B10ACE
:1001D000B11B02293308AC00AE080319AD03AE030E
:1001E00000000000000000002D082E04031DCC2894
:1001F0000108B3000130AC1F0301B31B0301B207B8
:100200000318B10A00340008840AB0000008840A08
:10021000B1000008840AB2000008840AB300A701F4
:100220004030840027082920A800A70A2708292091
:10023000A900A70A27082920AA00A70A2708292019
:10024000AB00A70A80012B08B3022A0803182D2946
:10025000B20203190310B2032E29B20229080318AF
:100260003629B10203190310B1033729B102280856
:1002700003183F29B00203190310B0034029B0024C
:10028000031C4429800A23292B08B3072A08031CCE
:100290004E29B207B20A031903144F29B2072908DD
:1002A000031C5729B107B10A031903145829B107D0
:1002B0002808031C6029B007B00A03190314612938
:1002C000B007840A20302702031D12294030840021
:1002D0008008031D7B29840A8008031D7B29840A6A
:1002E0008008031D7829840A8008031D7829840A60
:1002F0005118C4177C29C11700087120840A00080E
:100300007820840A00087F20840A00088620840A56
:1003100000088D2800308316850083128501003087
:100320008316860083128601CE01CF011330C800E8
:10033000143071201430782014307F20143086203F
:1003400014308D20273062202730AD001030AE00F1
:10035000C420383084000030BA2094208316003046
:1003600085000030860083126400203083168100EF
:1003700083120230AD009A30AE0025306220C420D6
:100380001330AD008830AE00D10A3208C039031DE9
:10039000032AB21AFF29321AFB29B219F729321996
:1003A000F329B218EF293218EC293308363C031C24
:1003B000EC293308053C031CE529DE2967204E3073
:1003C000AD002030AE000030072A67202730AD0096
:1003D0001030AE000130072A67200230072A203093
:1003E00062200330072A213062200430072A22309D
:1003F00062200530072A233062200630072A243085
:1004000062200730072A253062200830072AD000F2
:10041000C420D0080319132A0310B30DB20DB10D77
:10042000B00DD00B0C2A3008310432043304031908
:10043000522AB01B5D2A3008B4003108B5003208DA
:10044000B6003308B7003B08B3073A08031C2D2A4F
:10045000B207B20A031903142E2AB2073908031C83
:10046000362AB107B10A03190314372AB10738082D
:10047000031C3F2AB007B00A03190314402AB0072F
:10048000B01F4E2AB009B109B209B309B30F4E2A01
:10049000B20F4E2AB10F4E2AB00F4E2A0F21851EE1
:1004A000D22AAE29133071201330782013307F20E8
:1004B0000030862013308D204F2A133071201330E6
:1004C000782013307F200E30862013308D20AE2907
:1004D0000730AD00D030AE00C4281830712019307C
:1004E000782012307F201A30862013308D20682A21
:1004F0000A3071200D3078200D307F201330742A9F
:100500001B307120193078200B307F201330742A73
:100510001C3071200E30782016307F201730742A5E
:100520001A3071200A3078200B307F20203086204E
:100530000E308D20682A0430A32A0830A32A0C30FC
:10054000A32A1030A32AAF00343084002F08BA2029
:10055000343084000321682AA92934308400003013
:100560009B20840A01309B20840A02309B20840A4D
:1005700003309B20A929B409B509B609B709B70FFB
:10058000C72AB60FC72AB50FC72AB40FC72AAD2A84
:10059000B401B501B601B701AD2A0530BC00E02AAF
:1005A0000130CE2ABC01153071201630782017306A
:1005B0007F201030862013308D206822851EDD2A92
:1005C000D10A4A20851AE02A0A30BD00851AF12A8C
:1005D0006822BD0BE62A942068224A20851EEB2A59
:1005E00056283C08043C0319F92A031CFB2ABC0AC0
:1005F000E02ABC01E02A3C08093C0319032B031C38
:10060000062BBC0AE02A0530BC00E02ABC01E02A27
:084000000100020003000400AE
:02400E00013F70
:10420000000000000000000000000600F10058005F
:10421000000040000000000000004300A600D300A2
:084220000000A3004400E000CF
:00000001FF
