:020000040000FA
:100000009029820722347B3416341A344B348A34D4
:1000100082343B3402340A340334C234D63452348A
:1000200086348734A2344334F734FF340034073441
:10003000D734D2340B34F234C6348A341634E7342D
:100040007A34C634E6348207F834F434F134F234C6
:10005000F0348207003498349634803400340F34FE
:1000600042344034003401348634A0340034003447
:1000700027341034003400340334E83400340034BE
:10008000003464340034003400340A340034003462
:10009000003401343C0882076B2A762A7E2A862A9D
:1000A0008E2A992A9B2A9D2A9F2A6B2A3C0882071E
:1000B000AA2AAB2AB92AC62ACB2ACE2ACE2ACE2AE7
:1000C000CE2AAA2A640083168100831200346400B9
:1000D000810183162730810064002F308100831254
:1000E0000034C9007F390120C91BFD39C900003423
:1000F000CA007F390120CA1BFD39CA000034CB0079
:100100007F390120CB1BFD39CB000034CC007F3977
:100110000120CC1BFD39CC000034CD007F390120FB
:10012000CD1BFD39CD0000340030C900CA00CB0022
:10013000CC00CD0000348B1383169B008312000883
:1001400083169A001C158B1355309D00AA309D0014
:100150009C149C18A9281C1183128B170034AF0023
:100160008B1383169B001C141A0883128B178000B4
:100170002F080800AF20013E840AAF20013E840A08
:10018000AF20013E840AAF28B001B101B201B30132
:10019000AC018101000000004E082320AF0049306F
:1001A0004E078400000886002F088500CF0A4F1BE9
:1001B000CE0A4F134E08043C031CCE010108B300C5
:1001C0000130AC1F0301B31B0301B2070318B10ACE
:1001D000B11B08293308AC00AE080319AD03AE0308
:1001E00000000C30FF3E031DF2280000000000005C
:1001F000000000002D082E04031DCC280108B300C8
:100200000130AC1F0301B31B0301B2070318B10A8D
:1002100000340008840AB0000008840AB100000815
:10022000840AB2000008840AB300A70140308400A9
:1002300027082920A800A70A27082920A900A70A1B
:1002400027082920AA00A70A27082920AB00A70A07
:1002500080012B08B3022A0803183329B2020319BC
:100260000310B2033429B202290803183C29B10251
:1002700003190310B1033D29B102280803184529C9
:10028000B00203190310B0034629B002031C4A2927
:10029000800A29292B08B3072A08031C5429B2070E
:1002A000B20A031903145529B2072908031C5D2952
:1002B000B107B10A031903145E29B1072808031C0A
:1002C0006629B007B00A031903146729B007840A26
:1002D00020302702031D1829403084008008031DA8
:1002E0008129840A8008031D8129840A8008031D4E
:1002F0007E29840A8008031D7E29840A5118C417A8
:100300008229C11700087120840A00087820840A15
:1003100000087F20840A00088620840A00088D28AF
:100320000030831685008312850100308316860015
:1003300083128601CE01CF011330C8001430712022
:100340001430782014307F201430862014308D2013
:10035000273062206130AD00A830AE00C4203830B4
:1003600084000030BA2094208316003085000030CD
:1003700086008312640020308316810083120630C9
:10038000AD008230AE0025306220C4203030AD0098
:10039000D430AE00D10A3208C039031D012AB21A86
:1003A000FD29321AF929B219F5293219F229B218A0
:1003B000F2293218F2293308363C031CF22933089B
:1003C000053C031CEB29E4296720C330AD00503005
:1003D000AE000030052A67206130AD00A830AE00C5
:1003E0000130052A67200230052A203062200330C0
:1003F000052A213062200430052A2230622005308F
:10040000052A233062200630052AD000C420D008F7
:100410000319112A0310B30DB20DB10DB00DD00B9D
:100420000A2A30083104320433040319502AB01B5D
:100430005B2A3008B4003108B5003208B600330832
:10044000B7003B08B3073A08031C2B2AB207B20ACD
:10045000031903142C2AB2073908031C342AB107E4
:10046000B10A03190314352AB1073808031C3D2AC1
:10047000B007B00A031903143E2AB007B01F4C2A74
:10048000B009B109B209B309B30F4C2AB20F4C2A13
:10049000B10F4C2AB00F4C2A1521851ED02AB42941
:1004A000133071201330782013307F2000308620E5
:1004B00013308D204D2A13307120133078201330E3
:1004C0007F200E30862013308D20B4291330AD00EC
:1004D0008830AE00C42818307120193078201230CE
:1004E0007F201A30862013308D20662A0A30712032
:1004F0000D3078200D307F201330722A1B30712090
:10050000193078200B307F201330722A1C30712074
:100510000E30782016307F201730722A1A30712062
:100520000A3078200B307F20203086200E308D203E
:10053000662A0430A12A0830A12A0C30A12A1030E2
:10054000A12AAF00343084002F08BA203430840050
:100550000921662AAF293430840000309B20840AA8
:1005600001309B20840A02309B20840A03309B20A8
:10057000AF29B409B509B609B709B70FC52AB60F2F
:10058000C52AB50FC52AB40FC52AAB2AB401B501D7
:10059000B601B701AB2A0530BC00DE2A0130CC2AF7
:1005A000BC01153071201630782017307F201030B4
:1005B000862013308D206622851EDB2AD10A4A2030
:1005C000851ADE2A0A30BD00851AEF2A6622BD0B85
:1005D000E42A942066224A20851EE92A56283C08EF
:1005E000043C0319F72A031CF92ABC0ADE2ABC01C1
:1005F000DE2A3C08093C0319012B031C042BBC0A0E
:0C060000DE2A0530BC00DE2ABC01DE2A28
:084000000100020003000400AE
:02400E00023F6F
:10420000000000000000000000000600F10058005F
:10421000000040000000000000004300A600D300A2
:084220000000A3004400E000CF
:00000001FF
